{
  "_format": "hh-sol-artifact-1",
  "contractName": "WavePortal",
  "sourceName": "contracts/WavePortal.sol",
  "abi": [
    {
      "inputs": [],
      "stateMutability": "payable",
      "type": "constructor"
    },
    {
      "anonymous": false,
      "inputs": [
        {
          "indexed": true,
          "internalType": "address",
          "name": "from",
          "type": "address"
        },
        {
          "indexed": false,
          "internalType": "uint256",
          "name": "timestamp",
          "type": "uint256"
        },
        {
          "indexed": false,
          "internalType": "string",
          "name": "message",
          "type": "string"
        }
      ],
      "name": "novaOnda",
      "type": "event"
    },
    {
      "inputs": [],
      "name": "getTodasWaves",
      "outputs": [
        {
          "components": [
            {
              "internalType": "address",
              "name": "waver",
              "type": "address"
            },
            {
              "internalType": "uint256",
              "name": "timestamp",
              "type": "uint256"
            },
            {
              "internalType": "string",
              "name": "message",
              "type": "string"
            }
          ],
          "internalType": "struct WavePortal.Wave[]",
          "name": "",
          "type": "tuple[]"
        }
      ],
      "stateMutability": "view",
      "type": "function"
    },
    {
      "inputs": [],
      "name": "getTotalWaves",
      "outputs": [
        {
          "internalType": "uint256",
          "name": "",
          "type": "uint256"
        }
      ],
      "stateMutability": "view",
      "type": "function"
    },
    {
      "inputs": [
        {
          "internalType": "uint256",
          "name": "index",
          "type": "uint256"
        }
      ],
      "name": "getWave",
      "outputs": [
        {
          "internalType": "address",
          "name": "",
          "type": "address"
        },
        {
          "internalType": "uint256",
          "name": "",
          "type": "uint256"
        },
        {
          "internalType": "string",
          "name": "",
          "type": "string"
        }
      ],
      "stateMutability": "view",
      "type": "function"
    },
    {
      "inputs": [],
      "name": "hi",
      "outputs": [],
      "stateMutability": "nonpayable",
      "type": "function"
    },
    {
      "inputs": [],
      "name": "totalWaves",
      "outputs": [
        {
          "internalType": "uint256",
          "name": "",
          "type": "uint256"
        }
      ],
      "stateMutability": "view",
      "type": "function"
    },
    {
      "inputs": [
        {
          "internalType": "string",
          "name": "_message",
          "type": "string"
        }
      ],
      "name": "wave",
      "outputs": [],
      "stateMutability": "nonpayable",
      "type": "function"
    },
    {
      "inputs": [
        {
          "internalType": "uint256",
          "name": "",
          "type": "uint256"
        }
      ],
      "name": "waves",
      "outputs": [
        {
          "internalType": "address",
          "name": "waver",
          "type": "address"
        },
        {
          "internalType": "uint256",
          "name": "timestamp",
          "type": "uint256"
        },
        {
          "internalType": "string",
          "name": "message",
          "type": "string"
        }
      ],
      "stateMutability": "view",
      "type": "function"
    }
  ],
  "bytecode": "0x6080604052620000336040518060600160405280602581526020016200153d602591396200003960201b620008001760201c565b62000231565b620000d981604051602401620000509190620001aa565b6040516020818303038152906040527f41304fac000000000000000000000000000000000000000000000000000000007bffffffffffffffffffffffffffffffffffffffffffffffffffffffff19166020820180517bffffffffffffffffffffffffffffffffffffffffffffffffffffffff8381831617835250505050620000dc60201b60201c565b50565b6200010281620000fd6200010560201b62000899176200012660201b60201c565b60201c565b50565b60006a636f6e736f6c652e6c6f679050600080835160208501845afa505050565b6200013a60201b62000a1a17819050919050565b7f4e487b7100000000000000000000000000000000000000000000000000000000600052605160045260246000fd5b60006200017682620001ce565b620001828185620001d9565b935062000194818560208601620001ea565b6200019f8162000220565b840191505092915050565b60006020820190508181036000830152620001c6818462000169565b905092915050565b600081519050919050565b600082825260208201905092915050565b60005b838110156200020a578082015181840152602081019050620001ed565b838111156200021a576000848401525b50505050565b6000601f19601f8301169050919050565b6112fc80620002416000396000f3fe608060405234801561001057600080fd5b506004361061007d5760003560e01c80639a2cdc081161005b5780639a2cdc08146100da578063a99dca3f146100f8578063c781267a14610102578063df215f30146101345761007d565b8063291bcab3146100825780632c2f2630146100a0578063449d46c0146100be575b600080fd5b61008a610166565b6040516100979190610fbf565b60405180910390f35b6100a861016c565b6040516100b59190610ead565b60405180910390f35b6100d860048036038101906100d39190610b69565b6102bd565b005b6100e2610536565b6040516100ef9190610fbf565b60405180910390f35b610100610567565b005b61011c60048036038101906101179190610baa565b6105c1565b60405161012b93929190610e6f565b60405180910390f35b61014e60048036038101906101499190610baa565b6106a3565b60405161015d93929190610e6f565b60405180910390f35b60005481565b60606002805480602002602001604051908101604052809291908181526020016000905b828210156102b457838290600052602060002090600302016040518060600160405290816000820160009054906101000a900473ffffffffffffffffffffffffffffffffffffffff1673ffffffffffffffffffffffffffffffffffffffff1673ffffffffffffffffffffffffffffffffffffffff16815260200160018201548152602001600282018054610223906111b0565b80601f016020809104026020016040519081016040528092919081815260200182805461024f906111b0565b801561029c5780601f106102715761010080835404028352916020019161029c565b820191906000526020600020905b81548152906001019060200180831161027f57829003601f168201915b50505050508152505081526020019060010190610190565b50505050905090565b60016000808282546102cf91906110dc565b925050819055506103156040518060400160405280601781526020017f2573206d616e646f7520756d61206d656e736167656d21000000000000000000815250336108ba565b600060405180606001604052803373ffffffffffffffffffffffffffffffffffffffff168152602001428152602001838152509050600281908060018154018082558091505060019003906000526020600020906003020160009091909190915060008201518160000160006101000a81548173ffffffffffffffffffffffffffffffffffffffff021916908373ffffffffffffffffffffffffffffffffffffffff1602179055506020820151816001015560408201518160020190805190602001906103e3929190610a49565b5050503373ffffffffffffffffffffffffffffffffffffffff167f2f95198944e8c9aaaebd2ccf6f9464b3e1ec972556a0b75b911bd5f4c37ced3d428460405161042e929190610fda565b60405180910390a2600065b5e620f48000905047811115610484576040517f08c379a000000000000000000000000000000000000000000000000000000000815260040161047b90610f5f565b60405180910390fd5b60003373ffffffffffffffffffffffffffffffffffffffff16826040516104aa90610e5a565b60006040518083038185875af1925050503d80600081146104e7576040519150601f19603f3d011682016040523d82523d6000602084013e6104ec565b606091505b5050905080610530576040517f08c379a000000000000000000000000000000000000000000000000000000000815260040161052790610f9f565b60405180910390fd5b50505050565b600061055f6040518060600160405280602f8152602001611298602f9139600054600154610956565b600054905090565b600180600082825461057991906110dc565b925050819055506105bf6040518060400160405280600f81526020017f257320646575204f697a696e686f210000000000000000000000000000000000815250336108ba565b565b600281815481106105d157600080fd5b90600052602060002090600302016000915090508060000160009054906101000a900473ffffffffffffffffffffffffffffffffffffffff1690806001015490806002018054610620906111b0565b80601f016020809104026020016040519081016040528092919081815260200182805461064c906111b0565b80156106995780601f1061066e57610100808354040283529160200191610699565b820191906000526020600020905b81548152906001019060200180831161067c57829003601f168201915b5050505050905083565b600080606060005484106106ec576040517f08c379a00000000000000000000000000000000000000000000000000000000081526004016106e390610f7f565b60405180910390fd5b600060028581548110610728577f4e487b7100000000000000000000000000000000000000000000000000000000600052603260045260246000fd5b906000526020600020906003020190508060000160009054906101000a900473ffffffffffffffffffffffffffffffffffffffff16816001015482600201808054610772906111b0565b80601f016020809104026020016040519081016040528092919081815260200182805461079e906111b0565b80156107eb5780601f106107c0576101008083540402835291602001916107eb565b820191906000526020600020905b8154815290600101906020018083116107ce57829003601f168201915b50505050509050935093509350509193909250565b610896816040516024016108149190610ecf565b6040516020818303038152906040527f41304fac000000000000000000000000000000000000000000000000000000007bffffffffffffffffffffffffffffffffffffffffffffffffffffffff19166020820180517bffffffffffffffffffffffffffffffffffffffffffffffffffffffff83818316178352505050506109f5565b50565b60006a636f6e736f6c652e6c6f679050600080835160208501845afa505050565b61095282826040516024016108d0929190610ef1565b6040516020818303038152906040527f319af333000000000000000000000000000000000000000000000000000000007bffffffffffffffffffffffffffffffffffffffffffffffffffffffff19166020820180517bffffffffffffffffffffffffffffffffffffffffffffffffffffffff83818316178352505050506109f5565b5050565b6109f083838360405160240161096e93929190610f21565b6040516020818303038152906040527fca47c4eb000000000000000000000000000000000000000000000000000000007bffffffffffffffffffffffffffffffffffffffffffffffffffffffff19166020820180517bffffffffffffffffffffffffffffffffffffffffffffffffffffffff83818316178352505050506109f5565b505050565b610a0c81610a04610899610a0f565b63ffffffff16565b50565b610a1a819050919050565b7f4e487b7100000000000000000000000000000000000000000000000000000000600052605160045260246000fd5b828054610a55906111b0565b90600052602060002090601f016020900481019282610a775760008555610abe565b82601f10610a9057805160ff1916838001178555610abe565b82800160010185558215610abe579182015b82811115610abd578251825591602001919060010190610aa2565b5b509050610acb9190610acf565b5090565b5b80821115610ae8576000816000905550600101610ad0565b5090565b6000610aff610afa8461103b565b61100a565b905082815260208101848484011115610b1757600080fd5b610b2284828561116e565b509392505050565b600082601f830112610b3b57600080fd5b8135610b4b848260208601610aec565b91505092915050565b600081359050610b6381611280565b92915050565b600060208284031215610b7b57600080fd5b600082013567ffffffffffffffff811115610b9557600080fd5b610ba184828501610b2a565b91505092915050565b600060208284031215610bbc57600080fd5b6000610bca84828501610b54565b91505092915050565b6000610bdf8383610dec565b905092915050565b610bf081611132565b82525050565b610bff81611132565b82525050565b6000610c108261107b565b610c1a818561109e565b935083602082028501610c2c8561106b565b8060005b85811015610c685784840389528151610c498582610bd3565b9450610c5483611091565b925060208a01995050600181019050610c30565b50829750879550505050505092915050565b6000610c8582611086565b610c8f81856110ba565b9350610c9f81856020860161117d565b610ca88161126f565b840191505092915050565b6000610cbe82611086565b610cc881856110cb565b9350610cd881856020860161117d565b610ce18161126f565b840191505092915050565b6000610cf9602a836110cb565b91507f5361717565206d61696f7220646f2071756520646973706f6e6976656c206e6f60008301527f20636f6e747261746f2e000000000000000000000000000000000000000000006020830152604082019050919050565b6000610d5f6012836110cb565b91507f4e756d65726f20696e6578697374656e746500000000000000000000000000006000830152602082019050919050565b6000610d9f6000836110af565b9150600082019050919050565b6000610db9600f836110cb565b91507f46616c6861206e6f2073617175652e00000000000000000000000000000000006000830152602082019050919050565b6000606083016000830151610e046000860182610be7565b506020830151610e176020860182610e3c565b5060408301518482036040860152610e2f8282610c7a565b9150508091505092915050565b610e4581611164565b82525050565b610e5481611164565b82525050565b6000610e6582610d92565b9150819050919050565b6000606082019050610e846000830186610bf6565b610e916020830185610e4b565b8181036040830152610ea38184610cb3565b9050949350505050565b60006020820190508181036000830152610ec78184610c05565b905092915050565b60006020820190508181036000830152610ee98184610cb3565b905092915050565b60006040820190508181036000830152610f0b8185610cb3565b9050610f1a6020830184610bf6565b9392505050565b60006060820190508181036000830152610f3b8186610cb3565b9050610f4a6020830185610e4b565b610f576040830184610e4b565b949350505050565b60006020820190508181036000830152610f7881610cec565b9050919050565b60006020820190508181036000830152610f9881610d52565b9050919050565b60006020820190508181036000830152610fb881610dac565b9050919050565b6000602082019050610fd46000830184610e4b565b92915050565b6000604082019050610fef6000830185610e4b565b81810360208301526110018184610cb3565b90509392505050565b6000604051905081810181811067ffffffffffffffff8211171561103157611030611240565b5b8060405250919050565b600067ffffffffffffffff82111561105657611055611240565b5b601f19601f8301169050602081019050919050565b6000819050602082019050919050565b600081519050919050565b600081519050919050565b6000602082019050919050565b600082825260208201905092915050565b600081905092915050565b600082825260208201905092915050565b600082825260208201905092915050565b60006110e782611164565b91506110f283611164565b9250827fffffffffffffffffffffffffffffffffffffffffffffffffffffffffffffffff03821115611127576111266111e2565b5b828201905092915050565b600061113d82611144565b9050919050565b600073ffffffffffffffffffffffffffffffffffffffff82169050919050565b6000819050919050565b82818337600083830152505050565b60005b8381101561119b578082015181840152602081019050611180565b838111156111aa576000848401525b50505050565b600060028204905060018216806111c857607f821691505b602082108114156111dc576111db611211565b5b50919050565b7f4e487b7100000000000000000000000000000000000000000000000000000000600052601160045260246000fd5b7f4e487b7100000000000000000000000000000000000000000000000000000000600052602260045260246000fd5b7f4e487b7100000000000000000000000000000000000000000000000000000000600052604160045260246000fd5b6000601f19601f8301169050919050565b61128981611164565b811461129457600080fd5b5056fe54656d6f7320756d20746f74616c2064652025642074636861757a696e686f732065202564204f697a696e686f7321a26469706673582212209f2dd957713c26a44b8525302bcdaaf0a1a827460571577b7538068b9f8464b864736f6c63430008000033556562612c20657520736f7520756d20636f6e747261746f20696e74656c6967656e746521",
  "linkReferences": {},
  "deployedLinkReferences": {}
}